:020000040800F2
:100000000028002051180008D5120008DB12000853
:10001000E1120008E7120008ED12000800000000DD
:10002000000000000000000000000000F3120008C3
:10003000FF120008000000000B130008171300084F
:1000400099180008991800089918000899180008CC
:1000500099180008991800089918000899180008BC
:1000600099180008991800089918000899180008AC
:10007000991800089918000899180008991800089C
:10008000991800089918000899180008991800088C
:10009000991800089918000899180008991800087C
:1000A000991800089918000899180008991800086C
:1000B000251300089918000800000000991800088E
:1000C00099180008000000000000000099180008BE
:1000D00000000000991800089918000800000000AE
:1000E00099180008991800089918000800000000E5
:1000F0000000000000000000000000000000000000
:0C01000000000000000000005FF808F1A3
:10010C0010B5054C237833B9044B13B10448AFF345
:10011C0000800123237010BD580000200000000057
:10012C00C02E000808B5034B1BB103490348AFF3BD
:10013C00008008BD000000005C000020C02E0008FC
:10014C0080B582B000AF78607B68002B22D1002292
:10015C000121BD4801F09DFE00220221BA4801F0A8
:10016C0098FE00220421B84801F093FE00220821D9
:10017C00B54801F08EFE00221021B34801F089FE33
:10018C0000222021B04801F084FE01224021AE481B
:10019C0001F07FFE7B68012B22D101220121AA48AC
:1001AC0001F077FE00220221A74801F072FE002226
:1001BC000421A54801F06DFE01220821A24801F09E
:1001CC0068FE01221021A04801F063FE01222021CB
:1001DC009D4801F05EFE012240219B4801F059FE32
:1001EC007B68022B22D100220121974801F051FE9D
:1001FC0000220221944801F04CFE01220421924875
:10020C0001F047FE002208218F4801F042FE002237
:10021C0010218D4801F03DFE012220218A4801F079
:10022C0038FE00224021884801F033FE7B68032B06
:10023C0022D100220121844801F02BFE0022022150
:10024C00814801F026FE002204217F4801F021FEA6
:10025C00002208217C4801F01CFE012210217A4862
:10026C0001F017FE01222021774801F012FE002236
:10027C004021754801F00DFE7B68042B22D1012230
:10028C000121714801F005FE002202216E4801F0A7
:10029C0000FE002204216C4801F0FBFD0122082124
:1002AC00694801F0F6FD01221021674801F0F1FDCB
:1002BC0000222021644801F0ECFD0022402162481C
:1002CC0001F0E7FD7B68052B22D1002201215E485D
:1002DC0001F0DFFD012202215B4801F0DAFD002272
:1002EC000421594801F0D5FD00220821564801F09F
:1002FC00D0FD01221021544801F0CBFD0022202119
:10030C00514801F0C6FD002240214F4801F0C1FDCB
:10031C007B68062B22D1002201214B4801F0B9FD4C
:10032C0001220221484801F0B4FD00220421464874
:10033C0001F0AFFD00220821434801F0AAFD002284
:10034C001021414801F0A5FD002220213E4801F07A
:10035C00A0FD002240213C4801F09BFD7B68072B4F
:10036C0022D100220121384801F093FD0022022104
:10037C00354801F08EFD00220421334801F089FD3F
:10038C0001220821304801F084FD012210212E4861
:10039C0001F07FFD012220212B4801F07AFD012282
:1003AC004021294801F075FD7B68082B22D10022E1
:1003BC000121254801F06DFD00220221224801F0A7
:1003CC0068FD00220421204801F063FD0022082171
:1003DC001D4801F05EFD002210211B4801F059FD63
:1003EC0000222021184801F054FD0022402116481B
:1003FC0001F04FFD7B68092B22D10022012112480C
:10040C0001F047FD002202210F4801F042FD0022BD
:10041C0004210D4801F03DFD002208210A4801F09D
:10042C0038FD01221021084801F033FD0022202163
:10043C00054801F02EFD00224021034801F029FD62
:10044C0000BF0837BD4680BD000C014080B582B0AE
:10045C0000AF78607B68002B28D100228021D24825
:10046C0001F017FD00224FF48071CF4801F011FD0F
:10047C0000224FF40071CC4801F00BFD00224FF428
:10048C008061C94801F005FD00224FF40061C648A7
:10049C0001F0FFFC00224FF48051C34801F0F9FC3D
:1004AC0001224FF40051C04801F0F3FC7B68012B92
:1004BC0028D101228021BC4801F0EBFC00224FF432
:1004CC008071B94801F0E5FC00224FF40071B64888
:1004DC0001F0DFFC01224FF48061B34801F0D9FC3C
:1004EC0001224FF40061B04801F0D3FC01224FF41B
:1004FC008051AD4801F0CDFC01224FF40051AA48C7
:10050C0001F0C7FC7B68022B28D100228021A64871
:10051C0001F0BFFC00224FF48071A34801F0B9FC3C
:10052C0001224FF40071A04801F0B3FC00224FF4FB
:10053C0080619D4801F0ADFC00224FF400619A48A7
:10054C0001F0A7FC01224FF48051974801F0A1FC67
:10055C0000224FF40051944801F09BFC7B68032B64
:10056C0028D100228021904801F093FC00224FF406
:10057C0080718D4801F08DFC00224FF400718A4887
:10058C0001F087FC00224FF48061874801F081FC68
:10059C0001224FF40061844801F07BFC01224FF4EE
:1005AC008051814801F075FC00224FF400517E48C7
:1005BC0001F06FFC7B68042B28D1012280217A4842
:1005CC0001F067FC00224FF48071774801F061FC68
:1005DC0000224FF40071744801F05BFC01224FF4CF
:1005EC008061714801F055FC01224FF400616E48A6
:1005FC0001F04FFC00224FF480516B4801F049FC94
:10060C0000224FF40051684801F043FC7B68052B35
:10061C0028D100228021644801F03BFC01224FF4D8
:10062C008071614801F035FC00224FF400715E4886
:10063C0001F02FFC00224FF480615B4801F029FC93
:10064C0001224FF40061584801F023FC00224FF4C2
:10065C008051554801F01DFC00224FF400515248C6
:10066C0001F017FC7B68062B28D1002280214E4814
:10067C0001F00FFC01224FF480714B4801F009FC92
:10068C0000224FF40071484801F003FC00224FF4A3
:10069C008061454801F0FDFB00224FF400614248A7
:1006AC0001F0F7FB00224FF480513F4801F0F1FBC1
:1006BC0000224FF400513C4801F0EBFB7B68072B08
:1006CC0028D100228021384801F0E3FB00224FF4AE
:1006DC008071354801F0DDFB00224FF40071324887
:1006EC0001F0D7FB01224FF480612F4801F0D1FBC0
:1006FC0001224FF400612C4801F0CBFB01224FF496
:10070C008051294801F0C5FB01224FF400512648C5
:10071C0001F0BFFB7B68082B28D1002280212248E6
:10072C0001F0B7FB00224FF480711F4801F0B1FBC0
:10073C0000224FF400711C4801F0ABFB00224FF477
:10074C008061194801F0A5FB00224FF400611648A6
:10075C0001F09FFB00224FF48051134801F099FBEC
:10076C0000224FF40051104801F093FB7B68092BD9
:10077C002BD1002280210C4801F08BFB00224FF47E
:10078C008071094801F085FB00224FF40071064886
:10079C0001F07FFB00224FF48061034801F079FBEC
:1007AC0001224FF4006101E0000C0140094801F006
:1007BC0070FB00224FF48051064801F06AFB0022C6
:1007CC004FF40051034801F064FB00BF0837BD46ED
:1007DC0080BD00BF000C014080B500AF1F4B1B68F3
:1007EC001F4A13601F4B1B681C4A13604FF40071A7
:1007FC001D4801F037FB03461A461A4B1A60184B7A
:10080C001A68164B1B689A4226D1144B1A68154B62
:10081C001B689A4220D1154B1A68124B1B689A42DE
:10082C000ED0104B1B68114A13600E4B1B68002B2B
:10083C0012D10F4B01221A600E4B64221A600BE08E
:10084C000C4B1B68013B0B4A13600A4B1B68002BBB
:10085C0002D1064B01221A6000BF80BD04000020AB
:10086C000000002008000020000801400C000020BF
:10087C00740000203400002080B500AF1F4B1B68B3
:10088C001F4A13601F4B1B681C4A13604FF4806196
:10089C001D4801F0E7FA03461A461A4B1A60184B2A
:1008AC001A68164B1B689A4226D1144B1A68154BC2
:1008BC001B689A4220D1154B1A68124B1B689A423E
:1008CC000ED0104B1B68114A13600E4B1B68002B8B
:1008DC0012D10F4B01221A600E4B64221A600BE0EE
:1008EC000C4B1B68013B0B4A13600A4B1B68002B1B
:1008FC0002D1064B01221A6000BF80BD24000020EB
:10090C002000002028000020000801402C000020BE
:10091C00780000203000002080B500AF1F4B1B6812
:10092C001F4A13601F4B1B681C4A13604FF4006175
:10093C001D4801F097FA03461A461A4B1A60184BD9
:10094C001A68164B1B689A4226D1144B1A68154B21
:10095C001B689A4220D1154B1A68124B1B689A429D
:10096C000ED0104B1B68114A13600E4B1B68002BEA
:10097C0012D10F4B01221A600E4B64221A600BE04D
:10098C000C4B1B68013B0B4A13600A4B1B68002B7A
:10099C0002D1064B01221A6000BF80BD140000205A
:1009AC001000002018000020000801401C0000204E
:1009BC007C0000203800002080B584B000AFF860C7
:1009CC00B9607A603F4B1B68013B032B6ED801A2C8
:1009DC0052F823F0F1090008850A00081D0A0008E6
:1009EC00510A0008374B03221A60002208213648AE
:1009FC0001F04FFA01222221334801F04AFAFB6838
:100A0C004FF47A7202FB03F3184600F095FC54E0A5
:100A1C002E4B1B68012B4BD12A4B04221A6000224F
:100A2C002021294801F035FA01220A21264801F03B
:100A3C0030FA7B684FF47A7202FB03F3184600F02D
:100A4C007BFC35E0214B1B68012B33D11D4B022263
:100A5C001A60002202211C4801F01BFA01222821F5
:100A6C00194801F016FABB684FF47A7202FB03F3D3
:100A7C00184600F061FC1DE0144B1B68012B1BD1C8
:100A8C00104B03221A60002208210F4801F001FAD2
:100A9C00012222210C4801F0FCF9FB684FF47A7218
:100AAC0002FB03F3184600F047FC05E000BF04E02E
:100ABC0000BF02E000BF00E000BF00BF1037BD4622
:100ACC0080BD00BF8000002000080140B400002061
:100ADC0080B584B000AFF860B9607A603F4B1B689A
:100AEC00013B032B6ED801A252F823F0090B00082E
:100AFC00350B0008690B00089D0B0008374B0222D0
:100B0C001A6000220421364801F0C3F90122502159
:100B1C00334801F0BEF9BB684FF47A7202FB03F361
:100B2C00184600F071FC54E02E4B1B68012B4BD186
:100B3C002A4B03221A6000221021294801F0A9F93E
:100B4C0001224421264801F0A4F9FB684FF47A7283
:100B5C0002FB03F3184600F057FC35E0214B1B68F1
:100B6C00012B33D11D4B04221A60002240211C485A
:100B7C0001F08FF901221421194801F08AF97B68E0
:100B8C004FF47A7202FB03F3184600F03DFC1DE0B3
:100B9C00144B1B68012B1BD1104B02221A60002234
:100BAC0004210F4801F075F9012250210C4801F085
:100BBC0070F9BB684FF47A7202FB03F3184600F02D
:100BCC0023FC05E000BF04E000BF02E000BF00E032
:100BDC0000BF00BF1037BD4680BD00BF84000020A1
:100BEC0000080140C400002080B584B000AF00F0C4
:100BFC004FFE00F04DF900F0D3F900F085F9944860
:100C0C0001F098FD934B05221A60934B03221A6056
:100C1C00924B02221A60924B05221A60914B0322CE
:100C2C001A60914B02221A60904B03221A60904B6F
:100C3C0005221A608F4B00221A608F4B00221A601B
:100C4C000023FB600023BB6000237B608B4B0122E5
:100C5C001A608B4B01221A600A2000F0A1FB0023C2
:100C6C003B60884B1B68012B0BD13B6801333B600D
:100C7C000123FB6001237B600123BB60814B0022BD
:100C8C001A603B68042B00F2E18001A252F823F0B9
:100C9C00B10C0008DB0C00084B0D0008BB0D000864
:100CAC002B0E00086F4B1B686D4A11686E4A126858
:100CBC001846FFF70DFF6B4B1B68694A11686A4AAF
:100CCC0012681846FFF778FE00F0ACFCBFE0FB683A
:100CDC00012B08D1012000F0CBFB5E4B1B680221DD
:100CEC00184600F0DBF9684B1B68012B09D1012376
:100CFC00FB60584B1B680133564A1360624B002251
:100D0C001A60624B1B68012B04D1604B00221A60E5
:100D1C000023FB604F4B1B68642B02D14D4B002210
:100D2C001A60FB68002B03D14A4B1B684C4A1360BA
:100D3C004E4B00221A604E4B00221A6087E07B68F3
:100D4C00012B08D1022000F093FB444B1B680321BC
:100D5C00184600F0A3F94C4B1B68012B09D1012359
:100D6C007B603E4B1B6801333C4A1360464B0022B0
:100D7C001A60464B1B68012B04D1444B00221A60AD
:100D8C0000237B60354B1B68642B02D1334B002254
:100D9C001A607B68002B03D1304B1B68324A1360FE
:100DAC00324B00221A60324B00221A604FE0BB68B3
:100DBC00012B08D1032000F05BFB274B1B6804219F
:100DCC00184600F06BF9304B1B68012B09D101233D
:100DDC00BB60214B1B6801331F4A13602A4B002256
:100DEC001A602A4B1B68012B04D1284B00221A6075
:100DFC000023BB60184B1B68642B02D1164B0022DE
:100E0C001A60BB68002B03D1134B1B68154A136087
:100E1C00164B00221A60164B00221A6017E0174B73
:100E2C0001221A60164B01221A600E4B1B680F4AE6
:100E3C0013600B4B1B680E4A13600E4B00221A609A
:100E4C000D4B00221A6000233B6000E000BF08E756
:100E5C00D0000020880000208C0000209000002092
:100E6C0094000020980000209C000020A00000208E
:100E7C00A4000020A8000020AC000020800000206E
:100E8C008400002074000020780000207C000020EA
:100E9C0080B590B000AF07F1180328220021184646
:100EAC0002F000F83B1D00221A605A609A60DA606A
:100EBC001A610223BB610123BB621023FB62002376
:100ECC007B6307F11803184600F0FCFF0346002B68
:100EDC0001D000F0DDF80F237B600023BB60002302
:100EEC00FB6000233B6100237B613B1D0021184606
:100EFC0001F068FA0346002B01D000F0C9F800BFDE
:100F0C004037BD4680BD000080B586B000AF07F10C
:100F1C00080300221A605A609A60DA603B4600228D
:100F2C001A605A601D4B4FF080421A601B4B41F601
:100F3C003F725A60194B00229A60184B0A22DA60F1
:100F4C00164B00221A61154B00229A61134801F0CE
:100F5C00A1FB0346002B01D000F09AF84FF480530C
:100F6C00BB6007F1080319460C4801F037FD034636
:100F7C00002B01D000F08CF800233B6000237B6039
:100F8C003B461946054801F0FFFE0346002B01D0F5
:100F9C0000F07EF800BF1837BD4680BDD0000020A1
:100FAC0080B586B000AF07F1080300221A605A60C2
:100FBC009A60DA60294B9B69284A43F004039361D9
:100FCC00264B9B6903F004037B607B68234B9B6976
:100FDC00224A43F008039361204B9B6903F00803FA
:100FEC003B603B68002243F2FE111D4800F051FFAC
:100FFC00002243F6FF711B4800F04BFF43F2FE1337
:10100C00BB600123FB6000233B6102237B6107F182
:10101C0008031946124800F0ABFD43F6FF73BB60A2
:10102C000123FB6000233B6102237B6107F1080372
:10103C0019460C4800F09CFD4FF46063BB60002324
:10104C00FB6001233B6107F108031946044800F0DB
:10105C008FFD00BF1837BD4680BD00BF0010024099
:10106C0000080140000C014080B582B000AF7860F0
:10107C0000F07CF900F0AEF900F0E0F9FFF7ACFB02
:10108C00FFF7FAFBFFF748FC00BF0837BD4680BDF1
:10109C0080B400AF72B600BFFEE7000080B582B02E
:1010AC0000AF78603960594B1B68022B68D0022B5B
:1010BC0000F3A280002B02D0012B38D09CE001223F
:1010CC004FF48071524800F0E4FE01224FF40051BD
:1010DC004F4800F0DEFE00224FF480514C4800F0E7
:1010EC00D8FE002280214A4800F0D3FE7A68494B92
:1010FC0083FB02139910D317C91A0B469B000B44A0
:10110C005B00D11A0846FFF71BF87B68414A82FB4B
:10111C0003129210DB17D31A1846FFF797F94FF406
:10112C00FA7000F009F9394B01221A6069E03A4B68
:10113C001B68012B62D100224FF48071344800F0FF
:10114C00A8FE00224FF40051314800F0A2FE01220B
:10115C004FF480512E4800F09CFE012280212C4837
:10116C0000F097FE3868FEF7EBFF0020FFF76EF9F2
:10117C004FF4FA7000F0E0F8244B02221A603DE0C4
:10118C00254B1B68012B3BD101224FF48071204869
:10119C0000F07FFE01224FF400511D4800F079FE53
:1011AC0000224FF480511A4800F073FE0022802177
:1011BC00174800F06EFE7A68164B83FB02139910E9
:1011CC00D317C91A0B469B000B445B00D11A084677
:1011DC00FEF7B6FF7B680F4A82FB03129210DB17F7
:1011EC00D31A1846FFF732F94FF4FA7000F0A4F84E
:1011FC00064B01221A6003E000BF02E000BF00E0D2
:10120C0000BF00BF0837BD4680BD00BFB000002046
:10121C000008014067666666B400002080B485B0A3
:10122C0000AF154B9B69144A43F001039361124BB9
:10123C009B6903F00103BB60BB680F4BDB690E4A73
:10124C0043F08053D3610C4BDB6903F080537B601C
:10125C007B680A4B5B68FB60FB6823F0E063FB6018
:10126C00FB6843F08063FB60044AFB68536000BF7B
:10127C001437BD4680BC704700100240000001408E
:10128C0080B584B000AF78607B681B68B3F1804F89
:10129C0013D10C4BDB690B4A43F00103D361094BAF
:1012AC00DB6903F00103FB60FB68002200211C20BA
:1012BC0000F027FC1C2000F040FC00BF1037BD469E
:1012CC0080BD00BF0010024080B400AFFEE780B4C8
:1012DC0000AFFEE780B400AFFEE780B400AFFEE7DE
:1012EC0080B400AFFEE780B400AF00BFBD4680BC49
:1012FC00704780B400AF00BFBD4680BC704780B45F
:10130C0000AF00BFBD4680BC704780B500AF00F099
:10131C0005FB00BF80BD000080B500AF024801F0A6
:10132C0055FA00BF80BD00BFD000002080B400AFD4
:10133C0000BFBD4680BC704780B483B000AF7860FE
:10134C00074B00221A60074B1B687A6892FBF3F379
:10135C00054A136000BF0C37BD4680BC704700BF08
:10136C00B400002040000020B800002080B400AF82
:10137C00094B1B68002B0BDB074B1B68013B064A18
:10138C001360054B1B68002B02D1044B01221A6021
:10139C0000BFBD4680BC7047B8000020B4000020E0
:1013AC0080B483B000AF7860074B00221A60074B03
:1013BC001B687A6892FBF3F3054A136000BF0C3785
:1013CC00BD4680BC704700BFBC000020440000201C
:1013DC00C000002080B400AF094B1B68002B0BDB56
:1013EC00074B1B68013B064A1360054B1B68002B1F
:1013FC0002D1044B01221A6000BFBD4680BC70476D
:10140C00C0000020BC00002080B483B000AF786026
:10141C00074B00221A60074B1B687A6892FBF3F3A8
:10142C00054A136000BF0C37BD4680BC704700BF37
:10143C00C400002048000020C800002080B400AF89
:10144C00094B1B68002B0BDB074B1B68013B064A47
:10145C001360054B1B68002B02D1044B01221A6050
:10146C0000BFBD4680BC7047C8000020C4000020EF
:10147C0080B582B000AF78607B68012B39D1664BA8
:10148C001B68022B24D0022B35DC002B02D0012B45
:10149C000DD030E000220621604800F0FAFC5E4BD3
:1014AC0001221A604FF4FA70FFF77AFF28E05C4BC8
:1014BC001B68012B21D101220621584800F0E9FCC0
:1014CC00554B02221A604FF4FA70FFF769FF14E0D3
:1014DC00534B1B68012B12D1002206214F4800F000
:1014EC00D8FC4D4B01221A604FF4FA70FFF758FFED
:1014FC0005E000BF04E000BF02E000BF00E000BF59
:10150C007B68022B39D1444B1B68022B24D0022B55
:10151C0035DC002B02D0012B0DD030E000226021F5
:10152C003E4800F0B6FC3C4B01221A604FF4FA70B6
:10153C00FFF736FF28E03A4B1B68012B21D1012223
:10154C006021364800F0A5FC334B02221A604FF4A0
:10155C00FA70FFF725FF14E0314B1B68012B12D1F9
:10156C00002260212D4800F094FC2B4B01221A60C4
:10157C004FF4FA70FFF714FF05E000BF04E000BF62
:10158C0002E000BF00E000BF7B68032B39D1224B87
:10159C001B68022B24D0022B35DC002B02D0012B34
:1015AC000DD030E0002218211C4800F072FC1A4BC0
:1015BC0001221A604FF4FA70FFF7F2FE28E0184B84
:1015CC001B68012B21D101221821144800F061FC69
:1015DC00114B02221A604FF4FA70FFF7E1FE14E08F
:1015EC000F4B1B68012B12D1002218210B4800F065
:1015FC0050FC094B01221A604FF4FA70FFF7D0FE31
:10160C0005E000BF04E000BF02E000BF00E000BF47
:10161C0000BF0837BD4680BDCC000020000801404B
:10162C00BC00002080B500AF7B4B1B68022B77D031
:10163C00032B40F0E980794B1B68012B41D1784B8F
:10164C001B68002B3DD0744B02221A6001224FF410
:10165C008071744800F01DFC01224FF40051714858
:10166C0000F017FC00224FF480516E4800F011FC82
:10167C00002280216B4800F00CFC694B1A686A4B05
:10168C0083FB02139910D317C91A0B469B000B440A
:10169C005B00D11A0846FEF753FD614B1B68624A8A
:1016AC0082FB03129210DB17D31A1846FEF7CEFEFC
:1016BC005B4B1B68013B5A4A13604FF4FA70FFF7FF
:1016CC006FFE574B1B68002B0AD1584B1B68002B25
:1016DC0006D1574B1B68524A1360544B01221A60B7
:1016EC004F4B1B68002B0AD1504B1B68012B06D1AA
:1016FC00504B1B684A4A13604C4B02221A60484BF1
:10170C001B68002B40F08280484B1B68022B7DD15C
:10171C00494B1B68424A1360444B00221A6075E027
:10172C003E4B1B68012B41D1444B1B68002B3DD019
:10173C00394B03221A6000224FF48071394800F0B3
:10174C00A8FB00224FF40051364800F0A2FB012206
:10175C004FF48051334800F09CFB0122802131482A
:10176C0000F097FB354B1A682F4B83FB0213991033
:10177C00D317C91A0B469B000B445B00D11A0846C1
:10178C00FEF7DEFC2D4B1B68274A82FB03129210DE
:10179C00DB17D31A1846FEF759FE284B1B68013B82
:1017AC00264A13604FF4FA70FFF7FAFD234B1B68BF
:1017BC00002B0AD1224B1B68002B06D11E4B1B6839
:1017CC001E4A13601E4B01221A601C4B1B68002B17
:1017DC000AD11B4B1B68012B06D1154B1B68174AF2
:1017EC001360174B02221A60144B1B68002B0FD18D
:1017FC00134B1B68022B0BD10E4B1B680F4A13604B
:10180C000F4B00221A6003E000BF02E000BF00E0B3
:10181C0000BF00BF80BD00BF4C000020BC000020FA
:10182C00A00000200008014067666666A800002042
:10183C009C0000209400002098000020A4000020B0
:10184C00AC0000200C480D490D4A002302E0D4588E
:10185C00C4500433C4188C42F9D30A4A0A4C0023EE
:10186C0001E013600432A242FBD3FFF75FFD01F0ED
:10187C00F5FAFFF7B9F97047000000205800002076
:10188C00002F0008580000201C010020FEE700007B
:10189C0080B500AF084B1B68074A43F01003136078
:1018AC00032000F023F90F2000F008F8FFF7B6FC36
:1018BC000023184680BD00BF0020024080B582B0D6
:1018CC0000AF7860124B1A68124B1B7819464FF414
:1018DC007A73B3FBF1F3B2FBF3F3184600F03BF968
:1018EC000346002B01D001230EE07B680F2B0AD896
:1018FC00002279684FF0FF3000F003F9064A7B684C
:10190C001360002300E0012318460837BD4680BD54
:10191C003C000020540000205000002080B400AF98
:10192C00054B1B781A46054B1B681344034A13607E
:10193C0000BFBD4680BC7047540000201801002039
:10194C0080B400AF024B1B681846BD4680BC704784
:10195C001801002080B485B000AF78607B6803F07C
:10196C000703FB600C4BDB68BB60BA684FF6FF03E8
:10197C001340BB60FB681A02BB68134343F0BF63A0
:10198C0043F40033BB60044ABB68D36000BF143718
:10199C00BD4680BC704700BF00ED00E080B400AFD6
:1019AC00044BDB681B0A03F007031846BD4680BCDA
:1019BC00704700BF00ED00E080B483B000AF034679
:1019CC00FB7197F90730002B0BDBFB7903F01F023F
:1019DC00064997F907305B09012000FA02F241F839
:1019EC00232000BF0C37BD4680BC704700E100E0EF
:1019FC0080B483B000AF03463960FB7197F90730B0
:101A0C00002B0ADB3B68DAB20C4997F9073012015C
:101A1C00D2B20B4483F800230AE03B68DAB20849DF
:101A2C00FB7903F00F03043B1201D2B20B441A767C
:101A3C0000BF0C37BD4680BC704700BF00E100E022
:101A4C0000ED00E080B489B000AFF860B9607A6056
:101A5C00FB6803F00703FB61FB69C3F10703042B6D
:101A6C0028BF0423BB61FB690433062B02D9FB6935
:101A7C00033B00E000237B614FF0FF32BB6902FAAD
:101A8C0003F3DA43BB681A407B699A404FF0FF318D
:101A9C007B6901FA03F3D9437B680B401343184667
:101AAC002437BD4680BC704780B582B000AF7860EB
:101ABC007B68013BB3F1807F01D301230FE00A4A1D
:101ACC007B68013B53600F214FF0FF30FFF790FF15
:101ADC00054B00229A60044B07221A60002318461B
:101AEC000837BD4680BD00BF10E000E080B582B075
:101AFC0000AF78607868FFF72DFF00BF0837BD4650
:101B0C0080BD80B586B000AF0346B9607A60FB73C8
:101B1C0000237B61FFF742FF78617A68B9687869C6
:101B2C00FFF790FF024697F90F3011461846FFF762
:101B3C005FFF00BF1837BD4680BD80B582B000AFD7
:101B4C000346FB7197F907301846FFF735FF00BFC6
:101B5C000837BD4680BD80B582B000AF786078682C
:101B6C00FFF7A2FF034618460837BD4680BD0000AC
:101B7C0080B48BB000AF7860396000237B620023A7
:101B8C003B6248E101227B6A02FA03F3FB613B688A
:101B9C001B68FA691340BB61BA69FB699A4240F051
:101BAC0037813B685B68A34A93425ED0A14A93425B
:101BBC0075D8A14A934258D09F4A93426FD89F4AF6
:101BCC00934252D09D4A934269D89D4A93424CD03D
:101BDC009B4A934263D89B4A934246D0994A93427C
:101BEC005DD8122B2AD8122B59D801A252F823F007
:101BFC00771C0008511C0008631C0008A51C000879
:101C0C00AB1C0008AB1C0008AB1C0008AB1C00088C
:101C1C00AB1C0008AB1C0008AB1C0008AB1C00087C
:101C2C00AB1C0008AB1C0008AB1C0008AB1C00086C
:101C3C00AB1C0008591C00086D1C0008824A93421A
:101C4C0013D02CE03B68DB683B6229E03B68DB6827
:101C5C0004333B6224E03B68DB6808333B621FE0E3
:101C6C003B68DB680C333B621AE03B689B68002BDB
:101C7C0002D104233B6213E03B689B68012B05D126
:101C8C0008233B627B68FA691A6109E008233B620E
:101C9C007B68FA695A6103E000233B6200E000BFF5
:101CAC00BB69FF2B01D87B6801E07B6804337B6147
:101CBC00BB69FF2B02D87B6A9B0002E07B6A083B66
:101CCC009B003B617B691A680F213B6901FA03F3A6
:101CDC00DB431A40396A3B6901FA03F31A437B6907
:101CEC001A603B685B6803F08053002B00F0908017
:101CFC00564B9B69554A43F001039361534B9B69C7
:101D0C0003F00103BB60BB68514A7B6A9B0802333A
:101D1C0052F82330FB607B6A03F003039B000F2215
:101D2C0002FA03F3DB43FA681340FB607B68494A11
:101D3C0093420DD07B68484A934207D07B68474A50
:101D4C00934201D1022304E0032302E0012300E0CB
:101D5C0000237A6A02F0030292009340FA6813435C
:101D6C00FB603B497B6A9B080233FA6841F82320ED
:101D7C003B685B6803F48033002B06D0384B1A6841
:101D8C003749BB6913430B6006E0354B1A68BB69D6
:101D9C00DB43334913400B603B685B6803F400334F
:101DAC00002B06D02E4B5A682D49BB6913434B6050
:101DBC0006E02B4B5A68BB69DB43294913404B6047
:101DCC003B685B6803F48013002B06D0244B9A68A5
:101DDC002349BB6913438B6006E0214B9A68BB69AE
:101DEC00DB431F4913408B603B685B6803F40013B3
:101DFC00002B06D01A4BDA681949BB691343CB6028
:101E0C0006E0174BDA68BB69DB4315491340CB601E
:101E1C007B6A01337B623B681A687B6A22FA03F3A4
:101E2C00002B7FF4AFAE00BF00BF2C37BD4680BC8B
:101E3C00704700BF0000321000003110000022106B
:101E4C0000002110000012100000111000100240C0
:101E5C000000014000080140000C0140001001404E
:101E6C000004014080B485B000AF78600B467B80E5
:101E7C007B689A687B881340002B02D00123FB738C
:101E8C0001E00023FB73FB7B18461437BD4680BC76
:101E9C00704780B483B000AF78600B467B801346EC
:101EAC007B707B78002B03D07A887B681A6103E007
:101EBC007B881A047B681A6100BF0C37BD4680BC56
:101ECC007047000080B586B000AF78607B68002B4F
:101EDC0001D101236CE27B681B6803F00103002B2A
:101EEC0000F08780924B5B6803F00C03042B0CD042
:101EFC008F4B5B6803F00C03082B12D18C4B5B6887
:101F0C0003F48033B3F5803F0BD1894B1B6803F48A
:101F1C000033002B6CD07B685B68002B68D10123ED
:101F2C0046E27B685B68B3F5803F06D1804B1B684B
:101F3C007F4A43F4803313602EE07B685B68002B90
:101F4C000CD17B4B1B687A4A23F480331360784B9B
:101F5C001B68774A23F4802313601DE07B685B6861
:101F6C00B3F5A02F0CD1724B1B68714A43F480233C
:101F7C0013606F4B1B686E4A43F4803313600BE0A5
:101F8C006B4B1B686A4A23F480331360684B1B68E5
:101F9C00674A23F4802313607B685B68002B13D0A3
:101FAC00FFF7CEFC386108E0FFF7CAFC02463B693C
:101FBC00D31A642B01D90323FAE15D4B1B6803F49C
:101FCC000033002BF0D014E0FFF7BAFC386108E0C6
:101FDC00FFF7B6FC02463B69D31A642B01D90323E5
:101FEC00E6E1534B1B6803F40033002BF0D100E007
:101FFC0000BF7B681B6803F00203002B63D04C4BC3
:10200C005B6803F00C03002B0BD0494B5B6803F0AF
:10201C000C03082B1CD1464B5B6803F48033002B5C
:10202C0016D1434B1B6803F00203002B05D07B68D1
:10203C001B69012B01D00123BAE13D4B1B6823F036
:10204C00F8027B685B69DB00394913430B603AE0AB
:10205C007B681B69002B20D0364B01221A60FFF7DE
:10206C006FFC386108E0FFF76BFC02463B69D31A42
:10207C00022B01D903239BE12D4B1B6803F00203B8
:10208C00002BF0D02A4B1B6823F0F8027B685B69AD
:10209C00DB00274913430B6015E0264B00221A6026
:1020AC00FFF74EFC386108E0FFF74AFC02463B693B
:1020BC00D31A022B01D903237AE11D4B1B6803F0C1
:1020CC000203002BF0D17B681B6803F00803002B84
:1020DC003AD07B689B69002B19D0174B01221A60F0
:1020EC00FFF72EFC386108E0FFF72AFC02463B693B
:1020FC00D31A022B01D903235AE10D4B5B6A03F06F
:10210C000203002BF0D0012000F0A6FA1CE00A4BD1
:10211C0000221A60FFF714FC38610FE0FFF710FC87
:10212C0002463B69D31A022B08D9032340E100BFB6
:10213C000010024000004242800442429E4B5B6A07
:10214C0003F00203002BE9D17B681B6803F0040346
:10215C00002B00F0A6800023FB75974BDB6903F086
:10216C008053002B0DD1944BDB69934A43F0805381
:10217C00D361914BDB6903F08053BB60BB680123D7
:10218C00FB758E4B1B6803F48073002B18D18B4BA3
:10219C001B688A4A43F480731360FFF7D1FB3861E4
:1021AC0008E0FFF7CDFB02463B69D31A642B01D93B
:1021BC000323FDE0814B1B6803F48073002BF0D0EC
:1021CC007B68DB68012B06D17B4B1B6A7A4A43F098
:1021DC00010313622DE07B68DB68002B0CD1764B7E
:1021EC001B6A754A23F001031362734B1B6A724A14
:1021FC0023F0040313621CE07B68DB68052B0CD115
:10220C006D4B1B6A6C4A43F0040313626A4B1B6AE6
:10221C00694A43F0010313620BE0674B1B6A664A81
:10222C0023F001031362644B1B6A634A23F004031B
:10223C0013627B68DB68002B15D0FFF781FB3861DC
:10224C000AE0FFF77DFB02463B69D31A41F2883264
:10225C00934201D90323ABE0574B1B6A03F00203F3
:10226C00002BEED014E0FFF76BFB38610AE0FFF7B0
:10227C0067FB02463B69D31A41F28832934201D97B
:10228C00032395E04C4B1B6A03F00203002BEED1A9
:10229C00FB7D012B05D1484BDB69474A23F080536A
:1022AC00D3617B68DB69002B00F08180424B5B685B
:1022BC0003F00C03082B61D07B68DB69022B46D141
:1022CC003F4B00221A60FFF73BFB386108E0FFF739
:1022DC0037FB02463B69D31A022B01D9032367E073
:1022EC00354B1B6803F00073002BF0D17B681B6A25
:1022FC00B3F5803F08D1304B5B6823F400327B6828
:10230C009B682D4913434B602B4B5B6823F4741271
:10231C007B68196A7B685B6A0B43274913434B60E4
:10232C00274B01221A60FFF70BFB386108E0FFF71F
:10233C0007FB02463B69D31A022B01D9032337E072
:10234C001D4B1B6803F00073002BF0D02FE01C4BCF
:10235C0000221A60FFF7F4FA386108E0FFF7F0FA90
:10236C0002463B69D31A022B01D9032320E0124BFE
:10237C001B6803F00073002BF0D118E07B68DB695D
:10238C00012B01D1012313E00B4B5B68FB60FB6855
:10239C0003F480327B681B6A9A4206D1FB6803F413
:1023AC0070127B685B6A9A4201D0012300E0002323
:1023BC0018461837BD4680BD001002400070004022
:1023CC006000424280B584B000AF786039607B68B1
:1023DC00002B01D10123D0E06A4B1B6803F00703EB
:1023EC003A689A4210D9674B1B6823F0070265497B
:1023FC003B6813430B60634B1B6803F007033A689D
:10240C009A4201D00123B8E07B681B6803F00203F9
:10241C00002B20D07B681B6803F00403002B05D035
:10242C00594B5B68584A43F4E06353607B681B6804
:10243C0003F00803002B05D0534B5B68524A43F45E
:10244C0060535360504B5B6823F0F0027B689B68D1
:10245C004D4913434B607B681B6803F00103002B51
:10246C0040D07B685B68012B07D1474B1B6803F49A
:10247C000033002B15D101237FE07B685B68022BB6
:10248C0007D1414B1B6803F00073002B09D10123CA
:10249C0073E03D4B1B6803F00203002B01D10123B9
:1024AC006BE0394B5B6823F003027B685B68364951
:1024BC0013434B60FFF744FAF8600AE0FFF740FA69
:1024CC000246FB68D31A41F28832934201D90323A6
:1024DC0053E02D4B5B6803F00C027B685B689B0040
:1024EC009A42EBD1274B1B6803F007033A689A42D8
:1024FC0010D2244B1B6823F0070222493B6813437C
:10250C000B60204B1B6803F007033A689A4201D01A
:10251C00012332E07B681B6803F00403002B08D016
:10252C00194B5B6823F4E0627B68DB681649134344
:10253C004B607B681B6803F00803002B09D0124B1F
:10254C005B6823F460527B681B69DB000E49134304
:10255C004B6000F021F802460B4B5B681B0903F043
:10256C000F030A49CB5C22FA03F3094A1360094BA7
:10257C001B681846FFF7A2F9002318461037BD4612
:10258C0080BD00BF0020024000100240E82E000871
:10259C003C0000205000002090B48AB000AF2A4BC1
:1025AC003C1D0FCB84E80F0040F201233B8000233D
:1025BC00FB610023BB6100237B6200237B61002352
:1025CC003B62224B5B68FB61FB6903F00C03042B41
:1025DC0002D0082B03D02DE01D4B3B622DE0FB6994
:1025EC009B0C03F00F0307F12802134413F8243C4F
:1025FC007B61FB6903F48033002B13D0134B5B68B6
:10260C005B0C03F0010307F12802134413F8283C78
:10261C00BB617B690E4A02FB03F2BB69B2FBF3F3AD
:10262C007B6204E07B690B4A02FB03F37B627B6AEF
:10263C003B6202E0064B3B6200BF3B6A1846283700
:10264C00BD4690BC704700BFD82E00080010024059
:10265C0000127A0000093D0080B485B000AF7860AC
:10266C000A4B1B680A4AA2FB03235B0A7A6802FB2B
:10267C0003F3FB6000BFFB685A1EFA60002BF9D114
:10268C0000BF00BF1437BD4680BC70473C00002023
:10269C00D34D621080B582B000AF78607B68002BA0
:1026AC0001D1012341E07B6893F83D30DBB2002B74
:1026BC0006D17B68002283F83C207868FEF7E0FDA9
:1026CC007B68022283F83D207B681A687B680433A0
:1026DC001946104600F06AFA7B68012283F84620FE
:1026EC007B68012283F83E207B68012283F83F201F
:1026FC007B68012283F840207B68012283F841200B
:10270C007B68012283F842207B68012283F84320F6
:10271C007B68012283F844207B68012283F84520E2
:10272C007B68012283F83D20002318460837BD46FC
:10273C0080BD000080B485B000AF78607B6893F8F2
:10274C003D30DBB2012B01D0012335E07B68022246
:10275C0083F83D207B681B68DA687B681B6842F055
:10276C000102DA607B681B68164A934209D07B68C9
:10277C001B68B3F1804F04D07B681B68124A9342EC
:10278C0011D17B681B689B6803F00703FB60FB6837
:10279C00062B10D07B681B681A687B681B6842F09C
:1027AC0001021A6007E07B681B681A687B681B686B
:1027BC0042F001021A60002318461437BD4680BC53
:1027CC00704700BF002C01400004004080B582B06F
:1027DC0000AF78607B681B681B6903F00203022B57
:1027EC0022D17B681B68DB6803F00203022B1BD130
:1027FC007B681B686FF002021A617B6801221A77F2
:10280C007B681B689B6903F00303002B03D078687B
:10281C0000F0B1F905E0786800F0A4F9786800F0F0
:10282C00B3F97B6800221A777B681B681B6903F07D
:10283C000403042B22D17B681B68DB6803F00403C0
:10284C00042B1BD17B681B686FF004021A617B6838
:10285C0002221A777B681B689B6903F44073002B78
:10286C0003D0786800F087F905E0786800F07AF911
:10287C00786800F089F97B6800221A777B681B68FE
:10288C001B6903F00803082B22D17B681B68DB68EB
:10289C0003F00803082B1BD17B681B686FF0080240
:1028AC001A617B6804221A777B681B68DB6903F06A
:1028BC000303002B03D0786800F05DF905E078681D
:1028CC0000F050F9786800F05FF97B6800221A7705
:1028DC007B681B681B6903F01003102B22D17B68EB
:1028EC001B68DB6803F01003102B1BD17B681B6883
:1028FC006FF010021A617B6808221A777B681B68DC
:10290C00DB6903F44073002B03D0786800F033F9D3
:10291C0005E0786800F026F9786800F035F97B68F6
:10292C0000221A777B681B681B6903F00103012BDB
:10293C000ED17B681B68DB6803F00103012B07D108
:10294C007B681B686FF001021A617868FEF78CFBDC
:10295C007B681B681B6903F08003802B0ED17B689E
:10296C001B68DB6803F08003802B07D17B681B6836
:10297C006FF080021A61786800F067FA7B681B6858
:10298C001B6903F04003402B0ED17B681B68DB688E
:10299C0003F04003402B07D17B681B686FF04002AB
:1029AC001A61786800F0F9F87B681B681B6903F002
:1029BC002003202B0ED17B681B68DB6803F02003FF
:1029CC00202B07D17B681B686FF020021A61786896
:1029DC0000F032FA00BF0837BD4680BD80B584B028
:1029EC0000AF786039607B6893F83C30012B01D1E3
:1029FC000223B3E07B68012283F83C207B6802222F
:102A0C0083F83D207B681B689B68FB60FB6823F0A8
:102A1C007703FB60FB6823F47F43FB607B681B68D8
:102A2C00FA689A603B681B68B3F5005F3ED0B3F55B
:102A3C00005F00F28780B3F5805F00F08580B3F50E
:102A4C00805F7FD8702B1AD0702B7BD8602B50D026
:102A5C00602B77D8502B3CD0502B73D8402B58D0B0
:102A6C00402B6FD8302B64D0302B6BD8202B60D000
:102A7C00202B67D8002B5CD0102B5AD062E07B68DF
:102A8C0018683B6899683B685A683B68DB6800F0DB
:102A9C005CF97B681B689B68FB60FB6843F0770301
:102AAC00FB607B681B68FA689A604EE07B6818686C
:102ABC003B6899683B685A683B68DB6800F045F9ED
:102ACC007B681B689A687B681B6842F480429A603A
:102ADC003BE07B6818683B6859683B68DB681A46C2
:102AEC0000F0BCF87B681B685021184600F013F905
:102AFC002BE07B6818683B6859683B68DB681A46B2
:102B0C0000F0DAF87B681B686021184600F003F9C6
:102B1C001BE07B6818683B6859683B68DB681A46A1
:102B2C0000F09CF87B681B684021184600F0F3F815
:102B3C000BE07B681A683B681B681946104600F06E
:102B4C00EAF802E000BF00E000BF7B68012283F8D6
:102B5C003D207B68002283F83C2000231846103768
:102B6C00BD4680BD80B483B000AF786000BF0C3729
:102B7C00BD4680BC704780B483B000AF786000BFA6
:102B8C000C37BD4680BC704780B483B000AF786012
:102B9C0000BF0C37BD4680BC704780B483B000AF1B
:102BAC00786000BF0C37BD4680BC704780B485B0E0
:102BBC0000AF786039607B681B68FB607B68254AD6
:102BCC00934207D07B68B3F1804F03D07B68224AD5
:102BDC00934208D1FB6823F07003FB603B685B6891
:102BEC00FA681343FB607B681A4A934207D07B68F0
:102BFC00B3F1804F03D07B68174A934208D1FB682E
:102C0C0023F44073FB603B68DB68FA681343FB609A
:102C1C00FB6823F080023B685B691343FB607B68B5
:102C2C00FA681A603B689A687B68DA623B681A68D3
:102C3C007B689A627B68074A934203D13B681A69A6
:102C4C007B681A637B6801225A6100BF1437BD464A
:102C5C0080BC7047002C01400004004080B487B059
:102C6C0000AFF860B9607A60FB681B6A7B61FB6837
:102C7C001B6A23F00102FB681A62FB689B693B61CB
:102C8C003B6923F0F0033B617B681B013A691343FA
:102C9C003B617B6923F00A037B617A69BB68134350
:102CAC007B61FB683A699A61FB687A691A6200BFBA
:102CBC001C37BD4680BC704780B487B000AFF8604D
:102CCC00B9607A60FB681B6A23F01002FB681A6219
:102CDC00FB689B697B61FB681B6A3B617B6923F426
:102CEC0070437B617B681B037A6913437B613B698F
:102CFC0023F0A0033B61BB681B013A6913433B61A2
:102D0C00FB687A699A61FB683A691A6200BF1C37E2
:102D1C00BD4680BC704780B485B000AF7860396028
:102D2C007B689B68FB60FB6823F07003FB603A6870
:102D3C00FB68134343F00703FB607B68FA689A60F7
:102D4C0000BF1437BD4680BC704780B487B000AF5D
:102D5C00F860B9607A603B60FB689B687B617B695B
:102D6C0023F47F437B613B681A027B681A43BB6880
:102D7C0013437A6913437B61FB687A699A6000BFDD
:102D8C001C37BD4680BC704780B485B000AF7860FE
:102D9C0039607B6893F83C30012B01D1022341E070
:102DAC007B68012283F83C207B68022283F83D205B
:102DBC007B681B685B68FB607B681B689B68BB60FF
:102DCC00FB6823F07003FB603B681B68FA681343D5
:102DDC00FB607B681B68FA685A607B681B68144A46
:102DEC00934209D07B681B68B3F1804F04D07B6899
:102DFC001B68104A93420CD1BB6823F08003BB6064
:102E0C003B685B68BA681343BB607B681B68BA6835
:102E1C009A607B68012283F83D207B68002283F84E
:102E2C003C20002318461437BD4680BC704700BFB9
:102E3C00002C01400004004080B483B000AF7860E7
:102E4C0000BF0C37BD4680BC704780B483B000AF68
:102E5C00786000BF0C37BD4680BC704770B500264B
:102E6C000C4D0D4C641BA410A64209D100F022F8A5
:102E7C0000260A4D0A4C641BA410A64205D170BD55
:102E8C0055F8043B98470136EEE755F8043B984754
:102E9C000136F2E7F82E0008F82E0008F82E00088C
:102EAC00FC2E000803460244934200D1704703F8FD
:102EBC00011BF9E7F8B500BFF8BC08BC9E4670478B
:0C2ECC00F8B500BFF8BC08BC9E4670477B
:102ED80002030405060708090A0B0C0D0E0F101053
:102EE80000000000000000000102030406070809B2
:042EF800310100089C
:042EFC000D010008BC
:102F000001000000010000000100000001000000BD
:102F100001000000010000000100000001000000AD
:102F2000010000000100000001000000010000009D
:102F30006400000064000000640000000024F4004D
:102F40000A0000000A0000000A0000000300000060
:082F5000100000000100000068
:040000050800185186
:00000001FF
